{
    "_format": "hh-sol-artifact-1",
    "contractName": "Auth",
    "sourceName": "contracts/Auth.sol",
    "abi": [
        {
            "anonymous": false,
            "inputs": [
                {
                    "indexed": false,
                    "internalType": "string",
                    "name": "username",
                    "type": "string"
                }
            ],
            "name": "UserRegistered",
            "type": "event"
        },
        {
            "inputs": [
                {
                    "internalType": "string",
                    "name": "username",
                    "type": "string"
                },
                {
                    "internalType": "bytes32",
                    "name": "hashedPassword",
                    "type": "bytes32"
                },
                {
                    "internalType": "bytes32",
                    "name": "hashedPrivateNumber",
                    "type": "bytes32"
                }
            ],
            "name": "login",
            "outputs": [
                {
                    "internalType": "bool",
                    "name": "",
                    "type": "bool"
                }
            ],
            "stateMutability": "view",
            "type": "function"
        },
        {
            "inputs": [
                {
                    "internalType": "string",
                    "name": "username",
                    "type": "string"
                },
                {
                    "internalType": "bytes32",
                    "name": "hashedPassword",
                    "type": "bytes32"
                },
                {
                    "internalType": "bytes32",
                    "name": "hashedPrivateNumber",
                    "type": "bytes32"
                }
            ],
            "name": "register",
            "outputs": [],
            "stateMutability": "nonpayable",
            "type": "function"
        }
    ],
    "bytecode": "0x608060405234801561001057600080fd5b506106db806100206000396000f3fe608060405234801561001057600080fd5b50600436106100365760003560e01c806309f60e751461003b5780633f18f01814610057575b600080fd5b610055600480360381019061005091906103b3565b610087565b005b610071600480360381019061006c91906103b3565b6101ce565b60405161007e919061043d565b60405180910390f35b60008351036100cb576040517f08c379a00000000000000000000000000000000000000000000000000000000081526004016100c2906104b5565b60405180910390fd5b6000801b6001846040516100df9190610546565b90815260200160405180910390206000015414610131576040517f08c379a0000000000000000000000000000000000000000000000000000000008152600401610128906105a9565b60405180910390fd5b6040518060400160405280838152602001828152506001846040516101569190610546565b9081526020016040518091039020600082015181600001556020820151816001015590505060008081548092919061018d90610602565b91905055507f270ff4b111e5baa49283562af127cc5ea74e9d6c9efd5465578bd9223d5843f0836040516101c19190610683565b60405180910390a1505050565b6000806001856040516101e19190610546565b908152602001604051809103902090508381600001541480156102075750828160010154145b1561021657600191505061021c565b60009150505b9392505050565b6000604051905090565b600080fd5b600080fd5b600080fd5b600080fd5b6000601f19601f8301169050919050565b7f4e487b7100000000000000000000000000000000000000000000000000000000600052604160045260246000fd5b61028a82610241565b810181811067ffffffffffffffff821117156102a9576102a8610252565b5b80604052505050565b60006102bc610223565b90506102c88282610281565b919050565b600067ffffffffffffffff8211156102e8576102e7610252565b5b6102f182610241565b9050602081019050919050565b82818337600083830152505050565b600061032061031b846102cd565b6102b2565b90508281526020810184848401111561033c5761033b61023c565b5b6103478482856102fe565b509392505050565b600082601f83011261036457610363610237565b5b813561037484826020860161030d565b91505092915050565b6000819050919050565b6103908161037d565b811461039b57600080fd5b50565b6000813590506103ad81610387565b92915050565b6000806000606084860312156103cc576103cb61022d565b5b600084013567ffffffffffffffff8111156103ea576103e9610232565b5b6103f68682870161034f565b93505060206104078682870161039e565b92505060406104188682870161039e565b9150509250925092565b60008115159050919050565b61043781610422565b82525050565b6000602082019050610452600083018461042e565b92915050565b600082825260208201905092915050565b7f557365726e616d652063616e6e6f7420626520656d7074790000000000000000600082015250565b600061049f601883610458565b91506104aa82610469565b602082019050919050565b600060208201905081810360008301526104ce81610492565b9050919050565b600081519050919050565b600081905092915050565b60005b838110156105095780820151818401526020810190506104ee565b60008484015250505050565b6000610520826104d5565b61052a81856104e0565b935061053a8185602086016104eb565b80840191505092915050565b60006105528284610515565b915081905092915050565b7f5573657220616c72656164792065786973747300000000000000000000000000600082015250565b6000610593601383610458565b915061059e8261055d565b602082019050919050565b600060208201905081810360008301526105c281610586565b9050919050565b7f4e487b7100000000000000000000000000000000000000000000000000000000600052601160045260246000fd5b6000819050919050565b600061060d826105f8565b91507fffffffffffffffffffffffffffffffffffffffffffffffffffffffffffffffff820361063f5761063e6105c9565b5b600182019050919050565b6000610655826104d5565b61065f8185610458565b935061066f8185602086016104eb565b61067881610241565b840191505092915050565b6000602082019050818103600083015261069d818461064a565b90509291505056fea26469706673582212204f5ede10f181670ad640d46539aa0a566085c29ce5ff08994b5a56e95722208e64736f6c63430008140033",
    "linkReferences": {},
    "deployedLinkReferences": {}
}