{
    "_format": "hh-sol-artifact-1",
    "contractName": "GoodsContract",
    "sourceName": "contracts/GoodsContract.sol",
    "abi": [
        {
            "inputs": [
                {
                    "internalType": "bytes32",
                    "name": "uniqueId",
                    "type": "bytes32"
                },
                {
                    "internalType": "string",
                    "name": "username",
                    "type": "string"
                },
                {
                    "internalType": "uint256",
                    "name": "price",
                    "type": "uint256"
                },
                {
                    "internalType": "string",
                    "name": "date",
                    "type": "string"
                },
                {
                    "internalType": "string",
                    "name": "sellerName",
                    "type": "string"
                },
                {
                    "internalType": "string",
                    "name": "purchaserName",
                    "type": "string"
                },
                {
                    "internalType": "string",
                    "name": "image1Hash",
                    "type": "string"
                },
                {
                    "internalType": "string",
                    "name": "image2Hash",
                    "type": "string"
                },
                {
                    "internalType": "string",
                    "name": "image3Hash",
                    "type": "string"
                },
                {
                    "internalType": "string",
                    "name": "image4Hash",
                    "type": "string"
                },
                {
                    "internalType": "bool",
                    "name": "sold",
                    "type": "bool"
                }
            ],
            "name": "addPurchase",
            "outputs": [],
            "stateMutability": "nonpayable",
            "type": "function"
        },
        {
            "inputs": [
                {
                    "internalType": "string",
                    "name": "username",
                    "type": "string"
                },
                {
                    "internalType": "uint256",
                    "name": "purchaseId",
                    "type": "uint256"
                }
            ],
            "name": "getPurchaseById",
            "outputs": [
                {
                    "components": [
                        {
                            "internalType": "uint256",
                            "name": "purchaseId",
                            "type": "uint256"
                        },
                        {
                            "internalType": "bytes32",
                            "name": "uniqueId",
                            "type": "bytes32"
                        },
                        {
                            "internalType": "uint256",
                            "name": "price",
                            "type": "uint256"
                        },
                        {
                            "internalType": "string",
                            "name": "date",
                            "type": "string"
                        },
                        {
                            "internalType": "string",
                            "name": "sellerName",
                            "type": "string"
                        },
                        {
                            "internalType": "string",
                            "name": "purchaserName",
                            "type": "string"
                        },
                        {
                            "internalType": "string",
                            "name": "image1Hash",
                            "type": "string"
                        },
                        {
                            "internalType": "string",
                            "name": "image2Hash",
                            "type": "string"
                        },
                        {
                            "internalType": "string",
                            "name": "image3Hash",
                            "type": "string"
                        },
                        {
                            "internalType": "string",
                            "name": "image4Hash",
                            "type": "string"
                        },
                        {
                            "internalType": "bool",
                            "name": "sold",
                            "type": "bool"
                        }
                    ],
                    "internalType": "struct GoodsContract.Goods",
                    "name": "",
                    "type": "tuple"
                }
            ],
            "stateMutability": "view",
            "type": "function"
        },
        {
            "inputs": [
                {
                    "internalType": "string",
                    "name": "username",
                    "type": "string"
                }
            ],
            "name": "purchaseCounter",
            "outputs": [
                {
                    "internalType": "uint256",
                    "name": "",
                    "type": "uint256"
                }
            ],
            "stateMutability": "view",
            "type": "function"
        },
        {
            "inputs": [
                {
                    "internalType": "bytes32",
                    "name": "uniqueId",
                    "type": "bytes32"
                },
                {
                    "internalType": "string",
                    "name": "username",
                    "type": "string"
                }
            ],
            "name": "updatePurchaseSold",
            "outputs": [],
            "stateMutability": "nonpayable",
            "type": "function"
        }
    ],
    "bytecode": "0x608060405234801561001057600080fd5b506114ea806100206000396000f3fe608060405234801561001057600080fd5b506004361061004c5760003560e01c8063057dee1f146100515780636ce36776146100815780639a32e5561461009d578063a92fd5d5146100cd575b600080fd5b61006b60048036038101906100669190610b55565b6100e9565b6040516100789190610d8c565b60405180910390f35b61009b60048036038101906100969190610e06565b61056a565b005b6100b760048036038101906100b29190610fda565b610832565b6040516100c49190611032565b60405180910390f35b6100e760048036038101906100e2919061104d565b61085a565b005b6100f1610966565b6000808381526020019081526020016000208360405161011191906110e5565b9081526020016040518091039020604051806101600160405290816000820154815260200160018201548152602001600282015481526020016003820180546101599061112b565b80601f01602080910402602001604051908101604052809291908181526020018280546101859061112b565b80156101d25780601f106101a7576101008083540402835291602001916101d2565b820191906000526020600020905b8154815290600101906020018083116101b557829003601f168201915b505050505081526020016004820180546101eb9061112b565b80601f01602080910402602001604051908101604052809291908181526020018280546102179061112b565b80156102645780601f1061023957610100808354040283529160200191610264565b820191906000526020600020905b81548152906001019060200180831161024757829003601f168201915b5050505050815260200160058201805461027d9061112b565b80601f01602080910402602001604051908101604052809291908181526020018280546102a99061112b565b80156102f65780601f106102cb576101008083540402835291602001916102f6565b820191906000526020600020905b8154815290600101906020018083116102d957829003601f168201915b5050505050815260200160068201805461030f9061112b565b80601f016020809104026020016040519081016040528092919081815260200182805461033b9061112b565b80156103885780601f1061035d57610100808354040283529160200191610388565b820191906000526020600020905b81548152906001019060200180831161036b57829003601f168201915b505050505081526020016007820180546103a19061112b565b80601f01602080910402602001604051908101604052809291908181526020018280546103cd9061112b565b801561041a5780601f106103ef5761010080835404028352916020019161041a565b820191906000526020600020905b8154815290600101906020018083116103fd57829003601f168201915b505050505081526020016008820180546104339061112b565b80601f016020809104026020016040519081016040528092919081815260200182805461045f9061112b565b80156104ac5780601f10610481576101008083540402835291602001916104ac565b820191906000526020600020905b81548152906001019060200180831161048f57829003601f168201915b505050505081526020016009820180546104c59061112b565b80601f01602080910402602001604051908101604052809291908181526020018280546104f19061112b565b801561053e5780601f106105135761010080835404028352916020019161053e565b820191906000526020600020905b81548152906001019060200180831161052157829003601f168201915b50505050508152602001600a820160009054906101000a900460ff161515151581525050905092915050565b60006001808c60405161057d91906110e5565b908152602001604051809103902054610596919061118b565b905060006040518061016001604052808381526020018e81526020018c81526020018b81526020018a8152602001898152602001888152602001878152602001868152602001858152602001841515815250905060028190806001815401808255809150506001900390600052602060002090600b02016000909190919091506000820151816000015560208201518160010155604082015181600201556060820151816003019081610649919061136b565b50608082015181600401908161065f919061136b565b5060a0820151816005019081610675919061136b565b5060c082015181600601908161068b919061136b565b5060e08201518160070190816106a1919061136b565b506101008201518160080190816106b8919061136b565b506101208201518160090190816106cf919061136b565b5061014082015181600a0160006101000a81548160ff0219169083151502179055505050806000808481526020019081526020016000208d60405161071491906110e5565b90815260200160405180910390206000820151816000015560208201518160010155604082015181600201556060820151816003019081610755919061136b565b50608082015181600401908161076b919061136b565b5060a0820151816005019081610781919061136b565b5060c0820151816006019081610797919061136b565b5060e08201518160070190816107ad919061136b565b506101008201518160080190816107c4919061136b565b506101208201518160090190816107db919061136b565b5061014082015181600a0160006101000a81548160ff0219169083151502179055509050508160018d60405161081191906110e5565b90815260200160405180910390208190555050505050505050505050505050565b600060018260405161084491906110e5565b9081526020016040518091039020549050919050565b60005b60028054905081101561096157826002828154811061087f5761087e61143d565b5b90600052602060002090600b0201600101540361094e576001600282815481106108ac576108ab61143d565b5b90600052602060002090600b0201600a0160006101000a81548160ff0219169083151502179055506000806000600284815481106108ed576108ec61143d565b5b90600052602060002090600b02016000015481526020019081526020016000208360405161091b91906110e5565b90815260200160405180910390209050600181600a0160006101000a81548160ff02191690831515021790555050610961565b80806109599061146c565b91505061085d565b505050565b604051806101600160405280600081526020016000801916815260200160008152602001606081526020016060815260200160608152602001606081526020016060815260200160608152602001606081526020016000151581525090565b6000604051905090565b600080fd5b600080fd5b600080fd5b600080fd5b6000601f19601f8301169050919050565b7f4e487b7100000000000000000000000000000000000000000000000000000000600052604160045260246000fd5b610a2c826109e3565b810181811067ffffffffffffffff82111715610a4b57610a4a6109f4565b5b80604052505050565b6000610a5e6109c5565b9050610a6a8282610a23565b919050565b600067ffffffffffffffff821115610a8a57610a896109f4565b5b610a93826109e3565b9050602081019050919050565b82818337600083830152505050565b6000610ac2610abd84610a6f565b610a54565b905082815260208101848484011115610ade57610add6109de565b5b610ae9848285610aa0565b509392505050565b600082601f830112610b0657610b056109d9565b5b8135610b16848260208601610aaf565b91505092915050565b6000819050919050565b610b3281610b1f565b8114610b3d57600080fd5b50565b600081359050610b4f81610b29565b92915050565b60008060408385031215610b6c57610b6b6109cf565b5b600083013567ffffffffffffffff811115610b8a57610b896109d4565b5b610b9685828601610af1565b9250506020610ba785828601610b40565b9150509250929050565b610bba81610b1f565b82525050565b6000819050919050565b610bd381610bc0565b82525050565b600081519050919050565b600082825260208201905092915050565b60005b83811015610c13578082015181840152602081019050610bf8565b60008484015250505050565b6000610c2a82610bd9565b610c348185610be4565b9350610c44818560208601610bf5565b610c4d816109e3565b840191505092915050565b60008115159050919050565b610c6d81610c58565b82525050565b600061016083016000830151610c8c6000860182610bb1565b506020830151610c9f6020860182610bca565b506040830151610cb26040860182610bb1565b5060608301518482036060860152610cca8282610c1f565b91505060808301518482036080860152610ce48282610c1f565b91505060a083015184820360a0860152610cfe8282610c1f565b91505060c083015184820360c0860152610d188282610c1f565b91505060e083015184820360e0860152610d328282610c1f565b915050610100830151848203610100860152610d4e8282610c1f565b915050610120830151848203610120860152610d6a8282610c1f565b915050610140830151610d81610140860182610c64565b508091505092915050565b60006020820190508181036000830152610da68184610c73565b905092915050565b610db781610bc0565b8114610dc257600080fd5b50565b600081359050610dd481610dae565b92915050565b610de381610c58565b8114610dee57600080fd5b50565b600081359050610e0081610dda565b92915050565b60008060008060008060008060008060006101608c8e031215610e2c57610e2b6109cf565b5b6000610e3a8e828f01610dc5565b9b505060208c013567ffffffffffffffff811115610e5b57610e5a6109d4565b5b610e678e828f01610af1565b9a50506040610e788e828f01610b40565b99505060608c013567ffffffffffffffff811115610e9957610e986109d4565b5b610ea58e828f01610af1565b98505060808c013567ffffffffffffffff811115610ec657610ec56109d4565b5b610ed28e828f01610af1565b97505060a08c013567ffffffffffffffff811115610ef357610ef26109d4565b5b610eff8e828f01610af1565b96505060c08c013567ffffffffffffffff811115610f2057610f1f6109d4565b5b610f2c8e828f01610af1565b95505060e08c013567ffffffffffffffff811115610f4d57610f4c6109d4565b5b610f598e828f01610af1565b9450506101008c013567ffffffffffffffff811115610f7b57610f7a6109d4565b5b610f878e828f01610af1565b9350506101208c013567ffffffffffffffff811115610fa957610fa86109d4565b5b610fb58e828f01610af1565b925050610140610fc78e828f01610df1565b9150509295989b509295989b9093969950565b600060208284031215610ff057610fef6109cf565b5b600082013567ffffffffffffffff81111561100e5761100d6109d4565b5b61101a84828501610af1565b91505092915050565b61102c81610b1f565b82525050565b60006020820190506110476000830184611023565b92915050565b60008060408385031215611064576110636109cf565b5b600061107285828601610dc5565b925050602083013567ffffffffffffffff811115611093576110926109d4565b5b61109f85828601610af1565b9150509250929050565b600081905092915050565b60006110bf82610bd9565b6110c981856110a9565b93506110d9818560208601610bf5565b80840191505092915050565b60006110f182846110b4565b915081905092915050565b7f4e487b7100000000000000000000000000000000000000000000000000000000600052602260045260246000fd5b6000600282049050600182168061114357607f821691505b602082108103611156576111556110fc565b5b50919050565b7f4e487b7100000000000000000000000000000000000000000000000000000000600052601160045260246000fd5b600061119682610b1f565b91506111a183610b1f565b92508282019050808211156111b9576111b861115c565b5b92915050565b60008190508160005260206000209050919050565b60006020601f8301049050919050565b600082821b905092915050565b6000600883026112217fffffffffffffffffffffffffffffffffffffffffffffffffffffffffffffffff826111e4565b61122b86836111e4565b95508019841693508086168417925050509392505050565b6000819050919050565b600061126861126361125e84610b1f565b611243565b610b1f565b9050919050565b6000819050919050565b6112828361124d565b61129661128e8261126f565b8484546111f1565b825550505050565b600090565b6112ab61129e565b6112b6818484611279565b505050565b5b818110156112da576112cf6000826112a3565b6001810190506112bc565b5050565b601f82111561131f576112f0816111bf565b6112f9846111d4565b81016020851015611308578190505b61131c611314856111d4565b8301826112bb565b50505b505050565b600082821c905092915050565b600061134260001984600802611324565b1980831691505092915050565b600061135b8383611331565b9150826002028217905092915050565b61137482610bd9565b67ffffffffffffffff81111561138d5761138c6109f4565b5b611397825461112b565b6113a28282856112de565b600060209050601f8311600181146113d557600084156113c3578287015190505b6113cd858261134f565b865550611435565b601f1984166113e3866111bf565b60005b8281101561140b578489015182556001820191506020850194506020810190506113e6565b868310156114285784890151611424601f891682611331565b8355505b6001600288020188555050505b505050505050565b7f4e487b7100000000000000000000000000000000000000000000000000000000600052603260045260246000fd5b600061147782610b1f565b91507fffffffffffffffffffffffffffffffffffffffffffffffffffffffffffffffff82036114a9576114a861115c565b5b60018201905091905056fea26469706673582212208380377f59555ae030c897b9f5541538a61f4ca5d81d4cc48877cc031a76f22d64736f6c63430008140033",
    "linkReferences": {},
    "deployedLinkReferences": {}
}