{
    "_format": "hh-sol-artifact-1",
    "contractName": "Seller",
    "sourceName": "contracts/Seller.sol",
    "abi": [
        {
            "inputs": [
                {
                    "internalType": "address",
                    "name": "_seller",
                    "type": "address"
                }
            ],
            "name": "addSeller",
            "outputs": [],
            "stateMutability": "nonpayable",
            "type": "function"
        },
        {
            "inputs": [
                {
                    "internalType": "address",
                    "name": "seller",
                    "type": "address"
                }
            ],
            "name": "login",
            "outputs": [
                {
                    "internalType": "bool",
                    "name": "",
                    "type": "bool"
                }
            ],
            "stateMutability": "view",
            "type": "function"
        }
    ],
    "bytecode": "0x608060405234801561001057600080fd5b5061044d806100206000396000f3fe608060405234801561001057600080fd5b50600436106100365760003560e01c806335a6861a1461003b578063d93fabfa1461006b575b600080fd5b610055600480360381019061005091906102cb565b610087565b6040516100629190610313565b60405180910390f35b610085600480360381019061008091906102cb565b61011e565b005b6000600160008373ffffffffffffffffffffffffffffffffffffffff1673ffffffffffffffffffffffffffffffffffffffff16815260200190815260200160002060009054906101000a900460ff16610115576040517f08c379a000000000000000000000000000000000000000000000000000000000815260040161010c9061038b565b60405180910390fd5b60019050919050565b600160008273ffffffffffffffffffffffffffffffffffffffff1673ffffffffffffffffffffffffffffffffffffffff16815260200190815260200160002060009054906101000a900460ff16156101ab576040517f08c379a00000000000000000000000000000000000000000000000000000000081526004016101a2906103f7565b60405180910390fd5b6000819080600181540180825580915050600190039060005260206000200160009091909190916101000a81548173ffffffffffffffffffffffffffffffffffffffff021916908373ffffffffffffffffffffffffffffffffffffffff16021790555060018060008373ffffffffffffffffffffffffffffffffffffffff1673ffffffffffffffffffffffffffffffffffffffff16815260200190815260200160002060006101000a81548160ff02191690831515021790555050565b600080fd5b600073ffffffffffffffffffffffffffffffffffffffff82169050919050565b60006102988261026d565b9050919050565b6102a88161028d565b81146102b357600080fd5b50565b6000813590506102c58161029f565b92915050565b6000602082840312156102e1576102e0610268565b5b60006102ef848285016102b6565b91505092915050565b60008115159050919050565b61030d816102f8565b82525050565b60006020820190506103286000830184610304565b92915050565b600082825260208201905092915050565b7f4f6e6c792073656c6c6572732063616e206c6f67696e2e000000000000000000600082015250565b600061037560178361032e565b91506103808261033f565b602082019050919050565b600060208201905081810360008301526103a481610368565b9050919050565b7f53656c6c657220697320616c726561647920696e2077686974656c6973740000600082015250565b60006103e1601e8361032e565b91506103ec826103ab565b602082019050919050565b60006020820190508181036000830152610410816103d4565b905091905056fea264697066735822122084e7d55d3ea14bdef7a2dad4ac1f101bb908e348c9d5c20f4e88354a6e25989a64736f6c63430008140033",
    "linkReferences": {},
    "deployedLinkReferences": {}
}