{
  "_format": "hh-sol-artifact-1",
  "contractName": "SellerContractGoods",
  "sourceName": "contracts/SellerContractGoods.sol",
  "abi": [
    {
      "anonymous": false,
      "inputs": [
        {
          "indexed": true,
          "internalType": "bytes32",
          "name": "productId",
          "type": "bytes32"
        },
        {
          "indexed": false,
          "internalType": "bytes32",
          "name": "friendPurchaseId",
          "type": "bytes32"
        }
      ],
      "name": "FriendPurchaseAdded",
      "type": "event"
    },
    {
      "anonymous": false,
      "inputs": [
        {
          "indexed": true,
          "internalType": "bytes32",
          "name": "productId",
          "type": "bytes32"
        }
      ],
      "name": "ProductBlocked",
      "type": "event"
    },
    {
      "anonymous": false,
      "inputs": [
        {
          "indexed": true,
          "internalType": "bytes32",
          "name": "productId",
          "type": "bytes32"
        }
      ],
      "name": "ProductUnblocked",
      "type": "event"
    },
    {
      "anonymous": false,
      "inputs": [
        {
          "indexed": true,
          "internalType": "bytes32",
          "name": "productId",
          "type": "bytes32"
        },
        {
          "indexed": false,
          "internalType": "string",
          "name": "sellerName",
          "type": "string"
        },
        {
          "indexed": false,
          "internalType": "string",
          "name": "purchaserName",
          "type": "string"
        },
        {
          "indexed": false,
          "internalType": "string",
          "name": "date",
          "type": "string"
        },
        {
          "indexed": false,
          "internalType": "uint256",
          "name": "price",
          "type": "uint256"
        }
      ],
      "name": "PurchaseSuccessful",
      "type": "event"
    },
    {
      "inputs": [
        {
          "internalType": "bytes32",
          "name": "_productId",
          "type": "bytes32"
        },
        {
          "internalType": "bytes32",
          "name": "_friendPurchaseId",
          "type": "bytes32"
        }
      ],
      "name": "addFriendPurchase",
      "outputs": [],
      "stateMutability": "nonpayable",
      "type": "function"
    },
    {
      "inputs": [
        {
          "internalType": "bytes32",
          "name": "_productId",
          "type": "bytes32"
        }
      ],
      "name": "blockProduct",
      "outputs": [],
      "stateMutability": "nonpayable",
      "type": "function"
    },
    {
      "inputs": [
        {
          "internalType": "bytes32",
          "name": "",
          "type": "bytes32"
        }
      ],
      "name": "blocklist",
      "outputs": [
        {
          "internalType": "bool",
          "name": "",
          "type": "bool"
        }
      ],
      "stateMutability": "view",
      "type": "function"
    },
    {
      "inputs": [],
      "name": "counter",
      "outputs": [
        {
          "internalType": "uint256",
          "name": "",
          "type": "uint256"
        }
      ],
      "stateMutability": "view",
      "type": "function"
    },
    {
      "inputs": [
        {
          "internalType": "bytes32",
          "name": "_productId",
          "type": "bytes32"
        }
      ],
      "name": "getProduct",
      "outputs": [
        {
          "internalType": "string",
          "name": "sellerName",
          "type": "string"
        },
        {
          "internalType": "string",
          "name": "purchaserName",
          "type": "string"
        },
        {
          "internalType": "string",
          "name": "date",
          "type": "string"
        },
        {
          "internalType": "uint256",
          "name": "price",
          "type": "uint256"
        },
        {
          "internalType": "bytes32",
          "name": "friendPurchaseId",
          "type": "bytes32"
        }
      ],
      "stateMutability": "view",
      "type": "function"
    },
    {
      "inputs": [
        {
          "internalType": "bytes32",
          "name": "",
          "type": "bytes32"
        }
      ],
      "name": "productExists",
      "outputs": [
        {
          "internalType": "bool",
          "name": "",
          "type": "bool"
        }
      ],
      "stateMutability": "view",
      "type": "function"
    },
    {
      "inputs": [
        {
          "internalType": "bytes32",
          "name": "",
          "type": "bytes32"
        }
      ],
      "name": "products",
      "outputs": [
        {
          "internalType": "string",
          "name": "sellerName",
          "type": "string"
        },
        {
          "internalType": "string",
          "name": "purchaserName",
          "type": "string"
        },
        {
          "internalType": "string",
          "name": "date",
          "type": "string"
        },
        {
          "internalType": "uint256",
          "name": "price",
          "type": "uint256"
        },
        {
          "internalType": "bytes32",
          "name": "friendPurchaseId",
          "type": "bytes32"
        }
      ],
      "stateMutability": "view",
      "type": "function"
    },
    {
      "inputs": [
        {
          "internalType": "string",
          "name": "_sellerName",
          "type": "string"
        },
        {
          "internalType": "string",
          "name": "_purchaserName",
          "type": "string"
        },
        {
          "internalType": "string",
          "name": "_date",
          "type": "string"
        },
        {
          "internalType": "uint256",
          "name": "_price",
          "type": "uint256"
        }
      ],
      "name": "purchase",
      "outputs": [
        {
          "internalType": "bytes32",
          "name": "",
          "type": "bytes32"
        }
      ],
      "stateMutability": "nonpayable",
      "type": "function"
    },
    {
      "inputs": [
        {
          "internalType": "address",
          "name": "",
          "type": "address"
        }
      ],
      "name": "total",
      "outputs": [
        {
          "internalType": "uint256",
          "name": "",
          "type": "uint256"
        }
      ],
      "stateMutability": "view",
      "type": "function"
    },
    {
      "inputs": [
        {
          "internalType": "bytes32",
          "name": "_productId",
          "type": "bytes32"
        }
      ],
      "name": "unblockProduct",
      "outputs": [],
      "stateMutability": "nonpayable",
      "type": "function"
    },
    {
      "inputs": [
        {
          "internalType": "bytes32",
          "name": "_productId",
          "type": "bytes32"
        }
      ],
      "name": "verify",
      "outputs": [
        {
          "internalType": "bool",
          "name": "",
          "type": "bool"
        }
      ],
      "stateMutability": "view",
      "type": "function"
    }
  ],
  "bytecode": "0x608060405234801561001057600080fd5b50611649806100206000396000f3fe608060405234801561001057600080fd5b50600436106100a95760003560e01c806375e366161161007157806375e366161461016857806379054391146101985780637d3acfa5146101cc578063850efa20146101fc578063d2514e841461022c578063f85714921461025c576100a9565b80633a20e9df146100ae578063450b64ea146100e25780634d472116146100fe57806361bc221a1461012e5780636a5a0fd71461014c575b600080fd5b6100c860048036038101906100c39190610c2b565b610278565b6040516100d9959493929190610d10565b60405180910390f35b6100fc60048036038101906100f79190610c2b565b6104f9565b005b61011860048036038101906101139190610c2b565b6105b5565b6040516101259190610d93565b60405180910390f35b6101366105d5565b6040516101439190610dae565b60405180910390f35b61016660048036038101906101619190610c2b565b61061b565b005b610182600480360381019061017d9190610c2b565b6106d7565b60405161018f9190610d93565b60405180910390f35b6101b260048036038101906101ad9190610c2b565b610701565b6040516101c3959493929190610d10565b60405180910390f35b6101e660048036038101906101e19190610c2b565b6108cf565b6040516101f39190610d93565b60405180910390f35b61021660048036038101906102119190610f2a565b6108ef565b6040516102239190610fe5565b60405180910390f35b6102466004803603810190610241919061105e565b610ae6565b6040516102539190610dae565b60405180910390f35b6102766004803603810190610271919061108b565b610afe565b005b60608060606000806002600087815260200190815260200160002060009054906101000a900460ff166102e0576040517f08c379a00000000000000000000000000000000000000000000000000000000081526004016102d790611117565b60405180910390fd5b6000600160008881526020019081526020016000206040518060a001604052908160008201805461031090611166565b80601f016020809104026020016040519081016040528092919081815260200182805461033c90611166565b80156103895780601f1061035e57610100808354040283529160200191610389565b820191906000526020600020905b81548152906001019060200180831161036c57829003601f168201915b505050505081526020016001820180546103a290611166565b80601f01602080910402602001604051908101604052809291908181526020018280546103ce90611166565b801561041b5780601f106103f05761010080835404028352916020019161041b565b820191906000526020600020905b8154815290600101906020018083116103fe57829003601f168201915b5050505050815260200160028201805461043490611166565b80601f016020809104026020016040519081016040528092919081815260200182805461046090611166565b80156104ad5780601f10610482576101008083540402835291602001916104ad565b820191906000526020600020905b81548152906001019060200180831161049057829003601f168201915b5050505050815260200160038201548152602001600482015481525050905080600001519550806020015194508060400151935080606001519250806080015191505091939590929450565b6002600082815260200190815260200160002060009054906101000a900460ff16610559576040517f08c379a000000000000000000000000000000000000000000000000000000000815260040161055090611117565b60405180910390fd5b60016003600083815260200190815260200160002060006101000a81548160ff021916908315150217905550807fdd42b9fd13e472b542a7c8c19b310b23eeae2ab6269a8984b838ace9e86db60f60405160405180910390a250565b60026020528060005260406000206000915054906101000a900460ff1681565b60008060003373ffffffffffffffffffffffffffffffffffffffff1673ffffffffffffffffffffffffffffffffffffffff16815260200190815260200160002054905090565b6002600082815260200190815260200160002060009054906101000a900460ff1661067b576040517f08c379a000000000000000000000000000000000000000000000000000000000815260040161067290611117565b60405180910390fd5b60006003600083815260200190815260200160002060006101000a81548160ff021916908315150217905550807febd8e0a31f95740d32f8a7754bbd039feb4068c7a8f67872d1ed9278de48de8660405160405180910390a250565b60006002600083815260200190815260200160002060009054906101000a900460ff169050919050565b600160205280600052604060002060009150905080600001805461072490611166565b80601f016020809104026020016040519081016040528092919081815260200182805461075090611166565b801561079d5780601f106107725761010080835404028352916020019161079d565b820191906000526020600020905b81548152906001019060200180831161078057829003601f168201915b5050505050908060010180546107b290611166565b80601f01602080910402602001604051908101604052809291908181526020018280546107de90611166565b801561082b5780601f106108005761010080835404028352916020019161082b565b820191906000526020600020905b81548152906001019060200180831161080e57829003601f168201915b50505050509080600201805461084090611166565b80601f016020809104026020016040519081016040528092919081815260200182805461086c90611166565b80156108b95780601f1061088e576101008083540402835291602001916108b9565b820191906000526020600020905b81548152906001019060200180831161089c57829003601f168201915b5050505050908060030154908060040154905085565b60036020528060005260406000206000915054906101000a900460ff1681565b60008085858585424460405160200161090d969594939291906111f4565b6040516020818303038152906040528051906020012090506002600082815260200190815260200160002060009054906101000a900460ff1615610986576040517f08c379a000000000000000000000000000000000000000000000000000000000815260040161097d906112a4565b60405180910390fd5b6040518060a001604052808781526020018681526020018581526020018481526020016000801b8152506001600083815260200190815260200160002060008201518160000190816109d89190611470565b5060208201518160010190816109ee9190611470565b506040820151816002019081610a049190611470565b50606082015181600301556080820151816004015590505060016002600083815260200190815260200160002060006101000a81548160ff0219169083151502179055506000803373ffffffffffffffffffffffffffffffffffffffff1673ffffffffffffffffffffffffffffffffffffffff1681526020019081526020016000206000815480929190610a9790611571565b9190505550807fc3b5b4d031957b51515b7e7dc63966abb8845444a7fca02ae7b4bfd6f4e46d9287878787604051610ad294939291906115b9565b60405180910390a280915050949350505050565b60006020528060005260406000206000915090505481565b6002600083815260200190815260200160002060009054906101000a900460ff16610b5e576040517f08c379a0000000000000000000000000000000000000000000000000000000008152600401610b5590611117565b60405180910390fd5b80600160008481526020019081526020016000206004018190555060016002600083815260200190815260200160002060006101000a81548160ff021916908315150217905550817f21ab729889743baaa547a8941fea0f2f77fe69d6c65a27e51960607ed7afa32c82604051610bd59190610fe5565b60405180910390a25050565b6000604051905090565b600080fd5b600080fd5b6000819050919050565b610c0881610bf5565b8114610c1357600080fd5b50565b600081359050610c2581610bff565b92915050565b600060208284031215610c4157610c40610beb565b5b6000610c4f84828501610c16565b91505092915050565b600081519050919050565b600082825260208201905092915050565b60005b83811015610c92578082015181840152602081019050610c77565b60008484015250505050565b6000601f19601f8301169050919050565b6000610cba82610c58565b610cc48185610c63565b9350610cd4818560208601610c74565b610cdd81610c9e565b840191505092915050565b6000819050919050565b610cfb81610ce8565b82525050565b610d0a81610bf5565b82525050565b600060a0820190508181036000830152610d2a8188610caf565b90508181036020830152610d3e8187610caf565b90508181036040830152610d528186610caf565b9050610d616060830185610cf2565b610d6e6080830184610d01565b9695505050505050565b60008115159050919050565b610d8d81610d78565b82525050565b6000602082019050610da86000830184610d84565b92915050565b6000602082019050610dc36000830184610cf2565b92915050565b600080fd5b600080fd5b7f4e487b7100000000000000000000000000000000000000000000000000000000600052604160045260246000fd5b610e0b82610c9e565b810181811067ffffffffffffffff82111715610e2a57610e29610dd3565b5b80604052505050565b6000610e3d610be1565b9050610e498282610e02565b919050565b600067ffffffffffffffff821115610e6957610e68610dd3565b5b610e7282610c9e565b9050602081019050919050565b82818337600083830152505050565b6000610ea1610e9c84610e4e565b610e33565b905082815260208101848484011115610ebd57610ebc610dce565b5b610ec8848285610e7f565b509392505050565b600082601f830112610ee557610ee4610dc9565b5b8135610ef5848260208601610e8e565b91505092915050565b610f0781610ce8565b8114610f1257600080fd5b50565b600081359050610f2481610efe565b92915050565b60008060008060808587031215610f4457610f43610beb565b5b600085013567ffffffffffffffff811115610f6257610f61610bf0565b5b610f6e87828801610ed0565b945050602085013567ffffffffffffffff811115610f8f57610f8e610bf0565b5b610f9b87828801610ed0565b935050604085013567ffffffffffffffff811115610fbc57610fbb610bf0565b5b610fc887828801610ed0565b9250506060610fd987828801610f15565b91505092959194509250565b6000602082019050610ffa6000830184610d01565b92915050565b600073ffffffffffffffffffffffffffffffffffffffff82169050919050565b600061102b82611000565b9050919050565b61103b81611020565b811461104657600080fd5b50565b60008135905061105881611032565b92915050565b60006020828403121561107457611073610beb565b5b600061108284828501611049565b91505092915050565b600080604083850312156110a2576110a1610beb565b5b60006110b085828601610c16565b92505060206110c185828601610c16565b9150509250929050565b7f50726f6475637420494420646f6573206e6f7420657869737400000000000000600082015250565b6000611101601983610c63565b915061110c826110cb565b602082019050919050565b60006020820190508181036000830152611130816110f4565b9050919050565b7f4e487b7100000000000000000000000000000000000000000000000000000000600052602260045260246000fd5b6000600282049050600182168061117e57607f821691505b60208210810361119157611190611137565b5b50919050565b600081905092915050565b60006111ad82610c58565b6111b78185611197565b93506111c7818560208601610c74565b80840191505092915050565b6000819050919050565b6111ee6111e982610ce8565b6111d3565b82525050565b600061120082896111a2565b915061120c82886111a2565b915061121882876111a2565b915061122482866111dd565b60208201915061123482856111dd565b60208201915061124482846111dd565b602082019150819050979650505050505050565b7f50726f6475637420494420616c72656164792065786973747300000000000000600082015250565b600061128e601983610c63565b915061129982611258565b602082019050919050565b600060208201905081810360008301526112bd81611281565b9050919050565b60008190508160005260206000209050919050565b60006020601f8301049050919050565b600082821b905092915050565b6000600883026113267fffffffffffffffffffffffffffffffffffffffffffffffffffffffffffffffff826112e9565b61133086836112e9565b95508019841693508086168417925050509392505050565b6000819050919050565b600061136d61136861136384610ce8565b611348565b610ce8565b9050919050565b6000819050919050565b61138783611352565b61139b61139382611374565b8484546112f6565b825550505050565b600090565b6113b06113a3565b6113bb81848461137e565b505050565b5b818110156113df576113d46000826113a8565b6001810190506113c1565b5050565b601f821115611424576113f5816112c4565b6113fe846112d9565b8101602085101561140d578190505b611421611419856112d9565b8301826113c0565b50505b505050565b600082821c905092915050565b600061144760001984600802611429565b1980831691505092915050565b60006114608383611436565b9150826002028217905092915050565b61147982610c58565b67ffffffffffffffff81111561149257611491610dd3565b5b61149c8254611166565b6114a78282856113e3565b600060209050601f8311600181146114da57600084156114c8578287015190505b6114d28582611454565b86555061153a565b601f1984166114e8866112c4565b60005b82811015611510578489015182556001820191506020850194506020810190506114eb565b8683101561152d5784890151611529601f891682611436565b8355505b6001600288020188555050505b505050505050565b7f4e487b7100000000000000000000000000000000000000000000000000000000600052601160045260246000fd5b600061157c82610ce8565b91507fffffffffffffffffffffffffffffffffffffffffffffffffffffffffffffffff82036115ae576115ad611542565b5b600182019050919050565b600060808201905081810360008301526115d38187610caf565b905081810360208301526115e78186610caf565b905081810360408301526115fb8185610caf565b905061160a6060830184610cf2565b9594505050505056fea2646970667358221220b6e117112aaa7a6cd74f11e61f049cf3f407c2b5fd87939a8176b8aaa8b40e2a64736f6c63430008140033",
  "linkReferences": {},
  "deployedLinkReferences": {}
}