{
  "_format": "hh-sol-artifact-1",
  "contractName": "UserSold",
  "sourceName": "contracts/UserSold.sol",
  "abi": [
    {
      "anonymous": false,
      "inputs": [
        {
          "indexed": false,
          "internalType": "bytes32[]",
          "name": "productIdList",
          "type": "bytes32[]"
        },
        {
          "indexed": false,
          "internalType": "bytes32[]",
          "name": "newProductIdList",
          "type": "bytes32[]"
        }
      ],
      "name": "PurchaseIdsListed",
      "type": "event"
    },
    {
      "anonymous": false,
      "inputs": [
        {
          "indexed": true,
          "internalType": "bytes32",
          "name": "productId",
          "type": "bytes32"
        },
        {
          "indexed": true,
          "internalType": "bytes32",
          "name": "newProductId",
          "type": "bytes32"
        },
        {
          "indexed": false,
          "internalType": "uint256",
          "name": "uniqueid",
          "type": "uint256"
        },
        {
          "indexed": false,
          "internalType": "string",
          "name": "from",
          "type": "string"
        },
        {
          "indexed": false,
          "internalType": "string",
          "name": "to",
          "type": "string"
        },
        {
          "indexed": false,
          "internalType": "string",
          "name": "date",
          "type": "string"
        },
        {
          "indexed": false,
          "internalType": "uint256",
          "name": "price",
          "type": "uint256"
        }
      ],
      "name": "PurchaseMade",
      "type": "event"
    },
    {
      "inputs": [],
      "name": "getAllPurchaseIds",
      "outputs": [
        {
          "internalType": "bytes32[]",
          "name": "",
          "type": "bytes32[]"
        },
        {
          "internalType": "bytes32[]",
          "name": "",
          "type": "bytes32[]"
        }
      ],
      "stateMutability": "nonpayable",
      "type": "function"
    },
    {
      "inputs": [
        {
          "internalType": "string",
          "name": "from",
          "type": "string"
        },
        {
          "internalType": "string",
          "name": "to",
          "type": "string"
        },
        {
          "internalType": "string",
          "name": "date",
          "type": "string"
        },
        {
          "internalType": "uint256",
          "name": "price",
          "type": "uint256"
        },
        {
          "internalType": "bytes32",
          "name": "productId",
          "type": "bytes32"
        }
      ],
      "name": "makePurchase",
      "outputs": [
        {
          "internalType": "bytes32",
          "name": "",
          "type": "bytes32"
        },
        {
          "internalType": "bytes32",
          "name": "",
          "type": "bytes32"
        }
      ],
      "stateMutability": "nonpayable",
      "type": "function"
    }
  ],
  "bytecode": "0x608060405234801561001057600080fd5b50610f63806100206000396000f3fe608060405234801561001057600080fd5b50600436106100365760003560e01c8063de20ff3f1461003b578063f33748de1461006c575b600080fd5b610055600480360381019061005091906107db565b61008b565b6040516100639291906108b9565b60405180910390f35b6100746103df565b6040516100829291906109a0565b60405180910390f35b6000806002600084815260200190815260200160002060009054906101000a900460ff16156100ef576040517f08c379a00000000000000000000000000000000000000000000000000000000081526004016100e690610a34565b60405180910390fd5b60016002600085815260200190815260200160002060006101000a81548160ff0219169083151502179055506000803373ffffffffffffffffffffffffffffffffffffffff1673ffffffffffffffffffffffffffffffffffffffff168152602001908152602001600020600081548092919061016a90610a83565b91905055506000836040516020016101829190610aec565b60405160208183030381529060405280519060200120905060008190506040518060e001604052804281526020018a815260200189815260200188815260200187815260200186815260200182815250600160008060003373ffffffffffffffffffffffffffffffffffffffff1673ffffffffffffffffffffffffffffffffffffffff1681526020019081526020016000205481526020019081526020016000206000820151816000015560208201518160010190816102429190610d1e565b5060408201518160020190816102589190610d1e565b50606082015181600301908161026e9190610d1e565b506080820151816004015560a0820151816005015560c0820151816006015590505080857f9ee7eb853fd00720b02ef86f33c60c7df04d35faf5af3c7765e326fd7c812517600160008060003373ffffffffffffffffffffffffffffffffffffffff1673ffffffffffffffffffffffffffffffffffffffff168152602001908152602001600020548152602001908152602001600020600001548c8c8c8c60405161031d959493929190610e62565b60405180910390a3600160008060003373ffffffffffffffffffffffffffffffffffffffff1673ffffffffffffffffffffffffffffffffffffffff16815260200190815260200160002054815260200190815260200160002060050154600160008060003373ffffffffffffffffffffffffffffffffffffffff1673ffffffffffffffffffffffffffffffffffffffff168152602001908152602001600020548152602001908152602001600020600601549350935050509550959350505050565b60608060008060003373ffffffffffffffffffffffffffffffffffffffff1673ffffffffffffffffffffffffffffffffffffffff1681526020019081526020016000205467ffffffffffffffff81111561043c5761043b610644565b5b60405190808252806020026020018201604052801561046a5781602001602082028036833780820191505090505b50905060008060003373ffffffffffffffffffffffffffffffffffffffff1673ffffffffffffffffffffffffffffffffffffffff1681526020019081526020016000205467ffffffffffffffff8111156104c7576104c6610644565b5b6040519080825280602002602001820160405280156104f55781602001602082028036833780820191505090505b5090506000600190505b6000803373ffffffffffffffffffffffffffffffffffffffff1673ffffffffffffffffffffffffffffffffffffffff1681526020019081526020016000205481116105cf57600060016000838152602001908152602001600020905080600501548460018461056e9190610eca565b8151811061057f5761057e610efe565b5b60200260200101818152505080600601548360018461059e9190610eca565b815181106105af576105ae610efe565b5b6020026020010181815250505080806105c790610a83565b9150506104ff565b507f503edc04326eedf9de135eb1740c73cafa91952c77a06902339f3fb160cbd51282826040516106019291906109a0565b60405180910390a181819350935050509091565b6000604051905090565b600080fd5b600080fd5b600080fd5b600080fd5b6000601f19601f8301169050919050565b7f4e487b7100000000000000000000000000000000000000000000000000000000600052604160045260246000fd5b61067c82610633565b810181811067ffffffffffffffff8211171561069b5761069a610644565b5b80604052505050565b60006106ae610615565b90506106ba8282610673565b919050565b600067ffffffffffffffff8211156106da576106d9610644565b5b6106e382610633565b9050602081019050919050565b82818337600083830152505050565b600061071261070d846106bf565b6106a4565b90508281526020810184848401111561072e5761072d61062e565b5b6107398482856106f0565b509392505050565b600082601f83011261075657610755610629565b5b81356107668482602086016106ff565b91505092915050565b6000819050919050565b6107828161076f565b811461078d57600080fd5b50565b60008135905061079f81610779565b92915050565b6000819050919050565b6107b8816107a5565b81146107c357600080fd5b50565b6000813590506107d5816107af565b92915050565b600080600080600060a086880312156107f7576107f661061f565b5b600086013567ffffffffffffffff81111561081557610814610624565b5b61082188828901610741565b955050602086013567ffffffffffffffff81111561084257610841610624565b5b61084e88828901610741565b945050604086013567ffffffffffffffff81111561086f5761086e610624565b5b61087b88828901610741565b935050606061088c88828901610790565b925050608061089d888289016107c6565b9150509295509295909350565b6108b3816107a5565b82525050565b60006040820190506108ce60008301856108aa565b6108db60208301846108aa565b9392505050565b600081519050919050565b600082825260208201905092915050565b6000819050602082019050919050565b610917816107a5565b82525050565b6000610929838361090e565b60208301905092915050565b6000602082019050919050565b600061094d826108e2565b61095781856108ed565b9350610962836108fe565b8060005b8381101561099357815161097a888261091d565b975061098583610935565b925050600181019050610966565b5085935050505092915050565b600060408201905081810360008301526109ba8185610942565b905081810360208301526109ce8184610942565b90509392505050565b600082825260208201905092915050565b7f50726f6475637420494420616c72656164792075736564000000000000000000600082015250565b6000610a1e6017836109d7565b9150610a29826109e8565b602082019050919050565b60006020820190508181036000830152610a4d81610a11565b9050919050565b7f4e487b7100000000000000000000000000000000000000000000000000000000600052601160045260246000fd5b6000610a8e8261076f565b91507fffffffffffffffffffffffffffffffffffffffffffffffffffffffffffffffff8203610ac057610abf610a54565b5b600182019050919050565b6000819050919050565b610ae6610ae1826107a5565b610acb565b82525050565b6000610af88284610ad5565b60208201915081905092915050565b600081519050919050565b7f4e487b7100000000000000000000000000000000000000000000000000000000600052602260045260246000fd5b60006002820490506001821680610b5957607f821691505b602082108103610b6c57610b6b610b12565b5b50919050565b60008190508160005260206000209050919050565b60006020601f8301049050919050565b600082821b905092915050565b600060088302610bd47fffffffffffffffffffffffffffffffffffffffffffffffffffffffffffffffff82610b97565b610bde8683610b97565b95508019841693508086168417925050509392505050565b6000819050919050565b6000610c1b610c16610c118461076f565b610bf6565b61076f565b9050919050565b6000819050919050565b610c3583610c00565b610c49610c4182610c22565b848454610ba4565b825550505050565b600090565b610c5e610c51565b610c69818484610c2c565b505050565b5b81811015610c8d57610c82600082610c56565b600181019050610c6f565b5050565b601f821115610cd257610ca381610b72565b610cac84610b87565b81016020851015610cbb578190505b610ccf610cc785610b87565b830182610c6e565b50505b505050565b600082821c905092915050565b6000610cf560001984600802610cd7565b1980831691505092915050565b6000610d0e8383610ce4565b9150826002028217905092915050565b610d2782610b07565b67ffffffffffffffff811115610d4057610d3f610644565b5b610d4a8254610b41565b610d55828285610c91565b600060209050601f831160018114610d885760008415610d76578287015190505b610d808582610d02565b865550610de8565b601f198416610d9686610b72565b60005b82811015610dbe57848901518255600182019150602085019450602081019050610d99565b86831015610ddb5784890151610dd7601f891682610ce4565b8355505b6001600288020188555050505b505050505050565b610df98161076f565b82525050565b60005b83811015610e1d578082015181840152602081019050610e02565b60008484015250505050565b6000610e3482610b07565b610e3e81856109d7565b9350610e4e818560208601610dff565b610e5781610633565b840191505092915050565b600060a082019050610e776000830188610df0565b8181036020830152610e898187610e29565b90508181036040830152610e9d8186610e29565b90508181036060830152610eb18185610e29565b9050610ec06080830184610df0565b9695505050505050565b6000610ed58261076f565b9150610ee08361076f565b9250828203905081811115610ef857610ef7610a54565b5b92915050565b7f4e487b7100000000000000000000000000000000000000000000000000000000600052603260045260246000fdfea2646970667358221220e93f7006604fd489b9673dea4018c00ba3326b70efc4e574952b50171280a25964736f6c63430008140033",
  "linkReferences": {},
  "deployedLinkReferences": {}
}